:1000000000400020C90500008105000081050000B6
:1000100081050000810500008105000081050000C8
:1000200081050000810500008105000081050000B8
:1000300081050000810500008105000081050000A8
:100040008105000081050000810500008105000098
:100050008105000081050000810500008105000088
:100060008105000081050000810500008105000078
:100070008105000081050000810500008105000068
:100080008105000081050000810500008105000058
:100090008105000081050000810500008105000048
:1000A0008105000081050000810500008105000038
:1000B0008105000081050000810500008105000028
:1000C0000122002905D013004B43984201D401328C
:1000D000F9E7501E70470000074B1B68002B03D147
:1000E000064A1368002BFCD00023034A1360034A1E
:1000F0001360034B18607047000000201C21004073
:100100001C250040144B802252041A60134B80229D
:1001100092041A60124B1A680C210A431A60114AA1
:1001200013680B431360104B104A1A600022104BE7
:100130001A60104B0C3119600F4B013119600F4BD5
:100140001539196001230E490B600E490B600E49E9
:100150000A600E4A13607047180500501C050050D5
:10016000600700506407005024250040005027001D
:100170006C2500400C25004014250040002500405F
:10018000082000400020004008210040000000201E
:10019000054A1368002BFCD0044B1B68024A00215F
:1001A0001160FF20184070470821004018250040CA
:1001B00010B504000078002805D00134FFF78CFF4B
:1001C00020780028F9D110BD0FB400B583B004AA7F
:1001D00002CA0192034800F0AFF903B008BC04B0B2
:1001E0001847C046D900000070B5FFF7E1FF134C77
:1001F000FFF7CEFFFF2303400D2B19D07F2B0FD02D
:10020000082B0DD0C0B20300203B5E2BF0D80C4B66
:100210009C42EDD2651C2070FFF75EFF2C00E7E7E3
:10022000064B9C42E4D9013C0648FFF7C1FFDFE7DB
:10023000002323700448FFF7BBFF70BD04000020BB
:1002400054000020140800005808000010B50A48A7
:10025000FFF7CAFF094B1B78302B05D1074B5B78A2
:1002600020229343582B03D0044800F0A3F810BD7C
:10027000034800F0BFF8FAE7180800000400002067
:1002800006000020F8B5FFF73DFF2048FFF79CFF70
:100290001F4B204A1A6000231F4A13601F4A032184
:1002A00011601F4A13601F4B01221A6005E01E4AAD
:1002B0000C3B1B091D48FFF787FFFFF7C7FF040032
:1002C000FFF7C4FF05000127194B1F60194E1A4B99
:1002D000336001002000FFF7F3FE00233360174B6B
:1002E0001F60060003002A0021001548FFF76CFF7D
:1002F00033002A0021001348FFF766FF124B1B68EA
:10030000190014390129D2D0104AD1E73008000071
:1003100018050050F0FF00000485004008850040EB
:100320001085004000800040280800007008000090
:100330000C80004004050050B05F00004080004089
:10034000480800005C080000408500402C080000C0
:10035000F8B504000E0015000F350023D373084FC5
:10036000013D3100200000F04FFA7B5C2B70310022
:10037000200000F0C3F9041EF2D12800F8BDC046E9
:10038000E408000070B506000D0014001178002983
:1003900005D02800B047013421780029F9D170BD7B
:1003A00010B503000800984710BD03685A1C02608E
:1003B0001970704710B5037800242D2B15D00178E3
:1003C0000B00303B0022092B0BD8013093009B1807
:1003D0005B005B18303B1A0001780B00303B092BA7
:1003E000F3D91000002C03D110BD01300134E6E731
:1003F0005042F9E70200002007E0190061390529A1
:100400000CD8000157381818013213781900303908
:100410000929F2D8000130381818F5E719004139D8
:10042000052903D8000137381818EDE77047F0B5F3
:10043000CE46474680B587B006000D0017000193F1
:10044000117800290AD02D23994625290BD02800A0
:10045000B0473C00671C61780029F6D107B00CBC9E
:1004600090469946F0BD7A78002AF0D07C1C1300A3
:10047000633BD9B2152959D88B002E49CB589F46DA
:10048000019B1F1D19782800B0470197E2E7019BE7
:100490001F1D186800280ADB02AA0A21FFF758FF6F
:1004A000020029003000FFF76DFF0197D2E74042BC
:1004B00002AA0A21FFF74CFF421E4B461370F0E7D9
:1004C000019B1F1D1A6829003000FFF75BFF019791
:1004D000C0E7019B1F1D186802AA0A21FFF738FF19
:1004E000020029003000FFF74DFF0197B2E7019BA2
:1004F0001A1D90461F68002F05D130212800B047F3
:1005000043460193A6E730212800B0477821280010
:10051000B04702AA10213800FFF71AFF0200290095
:100520003000FFF72FFF4346019393E711002800A7
:10053000B0478FE78C08000010B513000A000100D7
:100540000148FFF774FF10BDA10300000EB410B501
:1005500083B0040005AB04CB0190009301A90748C8
:10056000FFF765FF019B5A1C019200221A70019B44
:10057000181B03B010BC08BC03B01847AB03000045
:1005800072B60C4B0C4A1A600C4A8020C001002144
:1005900010600B4BC046C046C046013B002BF9D152
:1005A0001160084BC046C046C046013B002BF9D144
:1005B000EEE7C04614050050F0FF000004050050AF
:1005C00040420F00400D030010B51B4A1368032181
:1005D0000B431360194BFF221A60194B00221A605B
:1005E000013BFF3B01321A60154B1A68002AFCD010
:1005F000144A154B9A420DD20333144A9B1A9B0896
:1006000001339B0000220F4811498C58845004325A
:100610009A42FAD10F4A104B9A4209D2111D033364
:100620005B1A032083435B18002102C29A42FCD16B
:10063000FFF728FE20BFFDE72405004050050040DD
:100640000001004000000020000000200400002005
:10065000F8080000000000205400002070B50028B9
:1006600012DB83109B00134A944663441C68C0004D
:10067000FF221600864003252E40B4430A408240E4
:100680002A4022431A6070BD030008339B109B0070
:10069000094A944663441C68C000FF221600864045
:1006A00003252E40B4430A4082402A4022431A6068
:1006B000E9E7C04600E400E01CED00E001238340D0
:1006C000014A13607047C04600E100E00123834007
:1006D000014A13607047C04680E100E00123834077
:1006E000014A13607047C04680E200E0024B80225E
:1006F00052051A607047C04604ED00E0002243082E
:100700008B4274D303098B425FD3030A8B4244D3D9
:10071000030B8B4228D3030C8B420DD3FF2209021B
:1007200012BA030C8B4202D31212090265D0030BDA
:100730008B4219D300E0090AC30B8B4201D3CB03D0
:10074000C01A5241830B8B4201D38B03C01A524112
:10075000430B8B4201D34B03C01A5241030B8B4214
:1007600001D30B03C01A5241C30A8B4201D3CB02FF
:10077000C01A5241830A8B4201D38B02C01A5241E4
:10078000430A8B4201D34B02C01A5241030A8B42E7
:1007900001D30B02C01A5241CDD2C3098B4201D3FF
:1007A000CB01C01A524183098B4201D38B01C01A7D
:1007B000524143098B4201D34B01C01A52410309F4
:1007C0008B4201D30B01C01A5241C3088B4201D3A3
:1007D000CB00C01A524183088B4201D38B00C01A50
:1007E000524143088B4201D34B00C01A5241411A77
:1007F00000D20146524110467047FFE701B5002084
:1008000000F006F802BDC0460029F7D076E7704731
:100810007047C0460820080047696D6D652061205B
:100820006E756D6265723A20000000007300000072
:100830000D0A48656C6C6F206D6963726F3A776F53
:10084000726C64210D0A0A00666F6F2825642C20E3
:10085000256429203D2025640D0A0000666F6F285D
:1008600025782C20257829203D2025780D0A0000A8
:100870002564206379636C6525732C202564206DC5
:100880006963726F7365630D0A0A000080040000DB
:100890008E0400002C0500002C0500002C05000033
:1008A0002C0500002C0500002C0500002C05000084
:1008B0002C0500002C0500002C0500002C05000074
:1008C0002C0500002C0500002C050000C0040000D1
:1008D0002C050000D20400002C0500002C050000AF
:1008E000EE04000030313233343536373839616246
:0808F00063646566000000006E
:00000001FF
