:1000000000400020A1020000590200005902000037
:100010005902000059020000590200005902000074
:100020005902000059020000590200005902000064
:100030005902000059020000590200005902000054
:100040005902000059020000590200005902000044
:100050005902000059020000590200005902000034
:100060005902000059020000590200005902000024
:100070005902000059020000590200005902000014
:100080005902000059020000590200005902000004
:1000900059020000590200005902000059020000F4
:1000A00059020000590200005902000059020000E4
:1000B00059020000590200005902000059020000D4
:1000C000144B802252041A60134B802292041A604F
:1000D000124B1A680C210A431A60114A13680B4329
:1000E0001360104B104A1A600022104B1A60104B1C
:1000F0000C3119600F4B013119600F4B1539196024
:1001000001230E490B600E490B600E490A600E4A2E
:1001100013607047180500501C0500506007005020
:100120006407005024250040005027006C25004043
:100130000C25004014250040002500400820004008
:10014000002000400821004000000020054A1368FC
:10015000002BFCD0044B1B68024A00211160FF20D9
:10016000184070470821004018250040074B1B68C5
:10017000002B03D1064A1368002BFCD00023034A4E
:100180001360034A1360034B18607047000000209F
:100190001C2100401C25004010B5040000780028F8
:1001A00005D00134FFF7E2FF20780028F9D110BD17
:1001B00070B51548FFF7F0FF144CFFF7C7FFFF239A
:1001C00003400D2B19D07F2B0FD0082B0DD0C0B2C0
:1001D0000300203B5E2BF0D80D4B9C42EDD2651CFA
:1001E0002070FFF7C3FF2C00E7E7084B9C42E4D9DF
:1001F000013C0848FFF7D0FFDFE7002323700648E3
:10020000FFF7CAFF70BDC046D00300000400002005
:1002100054000020D4030000EC03000070B5FFF789
:100220004FFF0948FFF7B8FF084E094D094CFFF78B
:10023000BFFF3000FFF7B0FF2800FFF7ADFF200041
:10024000FFF7AAFFF3E7C046D8030000F003000061
:1002500004000020EC03000072B60C4B0C4A1A603C
:100260000C4A8020C001002110600B4BC046C046E4
:10027000C046013B002BF9D11160084BC046C04677
:10028000C046013B002BF9D1EEE7C04614050050F3
:10029000F0FF00000405005040420F00400D030035
:1002A00010B51B4A136803210B431360194BFF223F
:1002B0001A60194B00221A60013BFF3B01321A60A1
:1002C000154B1A68002AFCD0144A154B9A420CD2DE
:1002D000013B9B1A9B0801339B0000220F481149E8
:1002E0008C58845004329A42FAD10F4A0F4B9A42EA
:1002F00009D2013B9B1A03218B43111D5B1800217E
:1003000002C29A42FCD1FFF789FF20BFFDE7C04639
:10031000240500405005004000010040000000207E
:1003200000000020F4030000000000205400002022
:1003300070B5002812DB83109B00134A9446634477
:100340001C68C000FF221600864003252E40B443DF
:100350000A4082402A4022431A6070BD03000833DD
:100360009B109B00094A944663441C68C000FF220E
:100370001600864003252E40B4430A4082402A409E
:1003800022431A60E9E7C04600E400E01CED00E00B
:1003900001238340014A13607047C04600E100E03A
:1003A00001238340014A13607047C04680E100E0AA
:1003B00001238340014A13607047C04680E200E099
:1003C000024B802252051A607047C04604ED00E0DF
:1003D0003E200000082008000D0A48656C6C6F2064
:1003E0006D6963726F3A776F726C64210D0A000059
:0403F0002D3E20007E
:00000001FF
